{
  "contractName": "MyToken",
  "abi": [
    {
      "inputs": [],
      "stateMutability": "nonpayable",
      "type": "constructor"
    },
    {
      "anonymous": false,
      "inputs": [
        {
          "indexed": true,
          "internalType": "address",
          "name": "owner",
          "type": "address"
        },
        {
          "indexed": true,
          "internalType": "address",
          "name": "spender",
          "type": "address"
        },
        {
          "indexed": false,
          "internalType": "uint256",
          "name": "value",
          "type": "uint256"
        }
      ],
      "name": "Approval",
      "type": "event"
    },
    {
      "anonymous": false,
      "inputs": [
        {
          "indexed": true,
          "internalType": "address",
          "name": "from",
          "type": "address"
        },
        {
          "indexed": true,
          "internalType": "address",
          "name": "to",
          "type": "address"
        },
        {
          "indexed": false,
          "internalType": "uint256",
          "name": "value",
          "type": "uint256"
        }
      ],
      "name": "Transfer",
      "type": "event"
    },
    {
      "inputs": [
        {
          "internalType": "address",
          "name": "owner",
          "type": "address"
        },
        {
          "internalType": "address",
          "name": "spender",
          "type": "address"
        }
      ],
      "name": "allowance",
      "outputs": [
        {
          "internalType": "uint256",
          "name": "",
          "type": "uint256"
        }
      ],
      "stateMutability": "view",
      "type": "function",
      "constant": true
    },
    {
      "inputs": [
        {
          "internalType": "address",
          "name": "spender",
          "type": "address"
        },
        {
          "internalType": "uint256",
          "name": "amount",
          "type": "uint256"
        }
      ],
      "name": "approve",
      "outputs": [
        {
          "internalType": "bool",
          "name": "",
          "type": "bool"
        }
      ],
      "stateMutability": "nonpayable",
      "type": "function"
    },
    {
      "inputs": [
        {
          "internalType": "address",
          "name": "account",
          "type": "address"
        }
      ],
      "name": "balanceOf",
      "outputs": [
        {
          "internalType": "uint256",
          "name": "",
          "type": "uint256"
        }
      ],
      "stateMutability": "view",
      "type": "function",
      "constant": true
    },
    {
      "inputs": [],
      "name": "decimals",
      "outputs": [
        {
          "internalType": "uint8",
          "name": "",
          "type": "uint8"
        }
      ],
      "stateMutability": "view",
      "type": "function",
      "constant": true
    },
    {
      "inputs": [
        {
          "internalType": "address",
          "name": "spender",
          "type": "address"
        },
        {
          "internalType": "uint256",
          "name": "subtractedValue",
          "type": "uint256"
        }
      ],
      "name": "decreaseAllowance",
      "outputs": [
        {
          "internalType": "bool",
          "name": "",
          "type": "bool"
        }
      ],
      "stateMutability": "nonpayable",
      "type": "function"
    },
    {
      "inputs": [
        {
          "internalType": "address",
          "name": "spender",
          "type": "address"
        },
        {
          "internalType": "uint256",
          "name": "addedValue",
          "type": "uint256"
        }
      ],
      "name": "increaseAllowance",
      "outputs": [
        {
          "internalType": "bool",
          "name": "",
          "type": "bool"
        }
      ],
      "stateMutability": "nonpayable",
      "type": "function"
    },
    {
      "inputs": [],
      "name": "name",
      "outputs": [
        {
          "internalType": "string",
          "name": "",
          "type": "string"
        }
      ],
      "stateMutability": "view",
      "type": "function",
      "constant": true
    },
    {
      "inputs": [],
      "name": "symbol",
      "outputs": [
        {
          "internalType": "string",
          "name": "",
          "type": "string"
        }
      ],
      "stateMutability": "view",
      "type": "function",
      "constant": true
    },
    {
      "inputs": [],
      "name": "totalSupply",
      "outputs": [
        {
          "internalType": "uint256",
          "name": "",
          "type": "uint256"
        }
      ],
      "stateMutability": "view",
      "type": "function",
      "constant": true
    },
    {
      "inputs": [
        {
          "internalType": "address",
          "name": "to",
          "type": "address"
        },
        {
          "internalType": "uint256",
          "name": "amount",
          "type": "uint256"
        }
      ],
      "name": "transfer",
      "outputs": [
        {
          "internalType": "bool",
          "name": "",
          "type": "bool"
        }
      ],
      "stateMutability": "nonpayable",
      "type": "function"
    },
    {
      "inputs": [
        {
          "internalType": "address",
          "name": "from",
          "type": "address"
        },
        {
          "internalType": "address",
          "name": "to",
          "type": "address"
        },
        {
          "internalType": "uint256",
          "name": "amount",
          "type": "uint256"
        }
      ],
      "name": "transferFrom",
      "outputs": [
        {
          "internalType": "bool",
          "name": "",
          "type": "bool"
        }
      ],
      "stateMutability": "nonpayable",
      "type": "function"
    },
    {
      "inputs": [
        {
          "internalType": "address[]",
          "name": "_addresses",
          "type": "address[]"
        },
        {
          "internalType": "uint256[]",
          "name": "_amounts",
          "type": "uint256[]"
        }
      ],
      "name": "multiTransfer",
      "outputs": [
        {
          "internalType": "bool",
          "name": "success",
          "type": "bool"
        }
      ],
      "stateMutability": "payable",
      "type": "function",
      "payable": true
    }
  ],
  "bytecode": "0x60806040523480156200001157600080fd5b506040518060400160405280600781526020017f4d79546f6b656e000000000000000000000000000000000000000000000000008152506040518060400160405280600381526020017f474954000000000000000000000000000000000000000000000000000000000081525081600390816200008f9190620004c4565b508060049081620000a19190620004c4565b505050620000c2336b033b2e3c9fd0803ce8000000620000c860201b60201c565b620006c6565b600073ffffffffffffffffffffffffffffffffffffffff168273ffffffffffffffffffffffffffffffffffffffff16036200013a576040517f08c379a000000000000000000000000000000000000000000000000000000000815260040162000131906200060c565b60405180910390fd5b6200014e600083836200024060201b60201c565b80600260008282546200016291906200065d565b92505081905550806000808473ffffffffffffffffffffffffffffffffffffffff1673ffffffffffffffffffffffffffffffffffffffff1681526020019081526020016000206000828254620001b991906200065d565b925050819055508173ffffffffffffffffffffffffffffffffffffffff16600073ffffffffffffffffffffffffffffffffffffffff167fddf252ad1be2c89b69c2b068fc378daa952ba7f163c4a11628f55a4df523b3ef83604051620002209190620006a9565b60405180910390a36200023c600083836200024560201b60201c565b5050565b505050565b505050565b600081519050919050565b7f4e487b7100000000000000000000000000000000000000000000000000000000600052604160045260246000fd5b7f4e487b7100000000000000000000000000000000000000000000000000000000600052602260045260246000fd5b60006002820490506001821680620002cc57607f821691505b602082108103620002e257620002e162000284565b5b50919050565b60008190508160005260206000209050919050565b60006020601f8301049050919050565b600082821b905092915050565b6000600883026200034c7fffffffffffffffffffffffffffffffffffffffffffffffffffffffffffffffff826200030d565b6200035886836200030d565b95508019841693508086168417925050509392505050565b6000819050919050565b6000819050919050565b6000620003a56200039f620003998462000370565b6200037a565b62000370565b9050919050565b6000819050919050565b620003c18362000384565b620003d9620003d082620003ac565b8484546200031a565b825550505050565b600090565b620003f0620003e1565b620003fd818484620003b6565b505050565b5b81811015620004255762000419600082620003e6565b60018101905062000403565b5050565b601f82111562000474576200043e81620002e8565b6200044984620002fd565b8101602085101562000459578190505b620004716200046885620002fd565b83018262000402565b50505b505050565b600082821c905092915050565b6000620004996000198460080262000479565b1980831691505092915050565b6000620004b4838362000486565b9150826002028217905092915050565b620004cf826200024a565b67ffffffffffffffff811115620004eb57620004ea62000255565b5b620004f78254620002b3565b6200050482828562000429565b600060209050601f8311600181146200053c576000841562000527578287015190505b620005338582620004a6565b865550620005a3565b601f1984166200054c86620002e8565b60005b8281101562000576578489015182556001820191506020850194506020810190506200054f565b8683101562000596578489015162000592601f89168262000486565b8355505b6001600288020188555050505b505050505050565b600082825260208201905092915050565b7f45524332303a206d696e7420746f20746865207a65726f206164647265737300600082015250565b6000620005f4601f83620005ab565b91506200060182620005bc565b602082019050919050565b600060208201905081810360008301526200062781620005e5565b9050919050565b7f4e487b7100000000000000000000000000000000000000000000000000000000600052601160045260246000fd5b60006200066a8262000370565b9150620006778362000370565b92508282019050808211156200069257620006916200062e565b5b92915050565b620006a38162000370565b82525050565b6000602082019050620006c0600083018462000698565b92915050565b61152b80620006d66000396000f3fe6080604052600436106100a75760003560e01c8063395093511161006457806339509351146101d757806370a082311461021457806395d89b4114610251578063a457c2d71461027c578063a9059cbb146102b9578063dd62ed3e146102f6576100a7565b806306fdde03146100ac578063095ea7b3146100d757806318160ddd146101145780631e89d5451461013f57806323b872dd1461016f578063313ce567146101ac575b600080fd5b3480156100b857600080fd5b506100c1610333565b6040516100ce9190610c50565b60405180910390f35b3480156100e357600080fd5b506100fe60048036038101906100f99190610d10565b6103c5565b60405161010b9190610d6b565b60405180910390f35b34801561012057600080fd5b506101296103e8565b6040516101369190610d95565b60405180910390f35b61015960048036038101906101549190610e6b565b6103f2565b6040516101669190610d6b565b60405180910390f35b34801561017b57600080fd5b5061019660048036038101906101919190610eec565b610470565b6040516101a39190610d6b565b60405180910390f35b3480156101b857600080fd5b506101c161049f565b6040516101ce9190610f5b565b60405180910390f35b3480156101e357600080fd5b506101fe60048036038101906101f99190610d10565b6104a8565b60405161020b9190610d6b565b60405180910390f35b34801561022057600080fd5b5061023b60048036038101906102369190610f76565b6104df565b6040516102489190610d95565b60405180910390f35b34801561025d57600080fd5b50610266610527565b6040516102739190610c50565b60405180910390f35b34801561028857600080fd5b506102a3600480360381019061029e9190610d10565b6105b9565b6040516102b09190610d6b565b60405180910390f35b3480156102c557600080fd5b506102e060048036038101906102db9190610d10565b610630565b6040516102ed9190610d6b565b60405180910390f35b34801561030257600080fd5b5061031d60048036038101906103189190610fa3565b610653565b60405161032a9190610d95565b60405180910390f35b60606003805461034290611012565b80601f016020809104026020016040519081016040528092919081815260200182805461036e90611012565b80156103bb5780601f10610390576101008083540402835291602001916103bb565b820191906000526020600020905b81548152906001019060200180831161039e57829003601f168201915b5050505050905090565b6000806103d06106da565b90506103dd8185856106e2565b600191505092915050565b6000600254905090565b600080600090505b858590508110156104635761044f86868381811061041b5761041a611043565b5b90506020020160208101906104309190610f76565b85858481811061044357610442611043565b5b90506020020135610630565b50808061045b906110a1565b9150506103fa565b5060019050949350505050565b60008061047b6106da565b90506104888582856108ab565b610493858585610937565b60019150509392505050565b60006012905090565b6000806104b36106da565b90506104d48185856104c58589610653565b6104cf91906110e9565b6106e2565b600191505092915050565b60008060008373ffffffffffffffffffffffffffffffffffffffff1673ffffffffffffffffffffffffffffffffffffffff168152602001908152602001600020549050919050565b60606004805461053690611012565b80601f016020809104026020016040519081016040528092919081815260200182805461056290611012565b80156105af5780601f10610584576101008083540402835291602001916105af565b820191906000526020600020905b81548152906001019060200180831161059257829003601f168201915b5050505050905090565b6000806105c46106da565b905060006105d28286610653565b905083811015610617576040517f08c379a000000000000000000000000000000000000000000000000000000000815260040161060e9061118f565b60405180910390fd5b61062482868684036106e2565b60019250505092915050565b60008061063b6106da565b9050610648818585610937565b600191505092915050565b6000600160008473ffffffffffffffffffffffffffffffffffffffff1673ffffffffffffffffffffffffffffffffffffffff16815260200190815260200160002060008373ffffffffffffffffffffffffffffffffffffffff1673ffffffffffffffffffffffffffffffffffffffff16815260200190815260200160002054905092915050565b600033905090565b600073ffffffffffffffffffffffffffffffffffffffff168373ffffffffffffffffffffffffffffffffffffffff1603610751576040517f08c379a000000000000000000000000000000000000000000000000000000000815260040161074890611221565b60405180910390fd5b600073ffffffffffffffffffffffffffffffffffffffff168273ffffffffffffffffffffffffffffffffffffffff16036107c0576040517f08c379a00000000000000000000000000000000000000000000000000000000081526004016107b7906112b3565b60405180910390fd5b80600160008573ffffffffffffffffffffffffffffffffffffffff1673ffffffffffffffffffffffffffffffffffffffff16815260200190815260200160002060008473ffffffffffffffffffffffffffffffffffffffff1673ffffffffffffffffffffffffffffffffffffffff168152602001908152602001600020819055508173ffffffffffffffffffffffffffffffffffffffff168373ffffffffffffffffffffffffffffffffffffffff167f8c5be1e5ebec7d5bd14f71427d1e84f3dd0314c0f7b2291e5b200ac8c7c3b9258360405161089e9190610d95565b60405180910390a3505050565b60006108b78484610653565b90507fffffffffffffffffffffffffffffffffffffffffffffffffffffffffffffffff81146109315781811015610923576040517f08c379a000000000000000000000000000000000000000000000000000000000815260040161091a9061131f565b60405180910390fd5b61093084848484036106e2565b5b50505050565b600073ffffffffffffffffffffffffffffffffffffffff168373ffffffffffffffffffffffffffffffffffffffff16036109a6576040517f08c379a000000000000000000000000000000000000000000000000000000000815260040161099d906113b1565b60405180910390fd5b600073ffffffffffffffffffffffffffffffffffffffff168273ffffffffffffffffffffffffffffffffffffffff1603610a15576040517f08c379a0000000000000000000000000000000000000000000000000000000008152600401610a0c90611443565b60405180910390fd5b610a20838383610bb6565b60008060008573ffffffffffffffffffffffffffffffffffffffff1673ffffffffffffffffffffffffffffffffffffffff16815260200190815260200160002054905081811015610aa6576040517f08c379a0000000000000000000000000000000000000000000000000000000008152600401610a9d906114d5565b60405180910390fd5b8181036000808673ffffffffffffffffffffffffffffffffffffffff1673ffffffffffffffffffffffffffffffffffffffff16815260200190815260200160002081905550816000808573ffffffffffffffffffffffffffffffffffffffff1673ffffffffffffffffffffffffffffffffffffffff1681526020019081526020016000206000828254610b3991906110e9565b925050819055508273ffffffffffffffffffffffffffffffffffffffff168473ffffffffffffffffffffffffffffffffffffffff167fddf252ad1be2c89b69c2b068fc378daa952ba7f163c4a11628f55a4df523b3ef84604051610b9d9190610d95565b60405180910390a3610bb0848484610bbb565b50505050565b505050565b505050565b600081519050919050565b600082825260208201905092915050565b60005b83811015610bfa578082015181840152602081019050610bdf565b60008484015250505050565b6000601f19601f8301169050919050565b6000610c2282610bc0565b610c2c8185610bcb565b9350610c3c818560208601610bdc565b610c4581610c06565b840191505092915050565b60006020820190508181036000830152610c6a8184610c17565b905092915050565b600080fd5b600080fd5b600073ffffffffffffffffffffffffffffffffffffffff82169050919050565b6000610ca782610c7c565b9050919050565b610cb781610c9c565b8114610cc257600080fd5b50565b600081359050610cd481610cae565b92915050565b6000819050919050565b610ced81610cda565b8114610cf857600080fd5b50565b600081359050610d0a81610ce4565b92915050565b60008060408385031215610d2757610d26610c72565b5b6000610d3585828601610cc5565b9250506020610d4685828601610cfb565b9150509250929050565b60008115159050919050565b610d6581610d50565b82525050565b6000602082019050610d806000830184610d5c565b92915050565b610d8f81610cda565b82525050565b6000602082019050610daa6000830184610d86565b92915050565b600080fd5b600080fd5b600080fd5b60008083601f840112610dd557610dd4610db0565b5b8235905067ffffffffffffffff811115610df257610df1610db5565b5b602083019150836020820283011115610e0e57610e0d610dba565b5b9250929050565b60008083601f840112610e2b57610e2a610db0565b5b8235905067ffffffffffffffff811115610e4857610e47610db5565b5b602083019150836020820283011115610e6457610e63610dba565b5b9250929050565b60008060008060408587031215610e8557610e84610c72565b5b600085013567ffffffffffffffff811115610ea357610ea2610c77565b5b610eaf87828801610dbf565b9450945050602085013567ffffffffffffffff811115610ed257610ed1610c77565b5b610ede87828801610e15565b925092505092959194509250565b600080600060608486031215610f0557610f04610c72565b5b6000610f1386828701610cc5565b9350506020610f2486828701610cc5565b9250506040610f3586828701610cfb565b9150509250925092565b600060ff82169050919050565b610f5581610f3f565b82525050565b6000602082019050610f706000830184610f4c565b92915050565b600060208284031215610f8c57610f8b610c72565b5b6000610f9a84828501610cc5565b91505092915050565b60008060408385031215610fba57610fb9610c72565b5b6000610fc885828601610cc5565b9250506020610fd985828601610cc5565b9150509250929050565b7f4e487b7100000000000000000000000000000000000000000000000000000000600052602260045260246000fd5b6000600282049050600182168061102a57607f821691505b60208210810361103d5761103c610fe3565b5b50919050565b7f4e487b7100000000000000000000000000000000000000000000000000000000600052603260045260246000fd5b7f4e487b7100000000000000000000000000000000000000000000000000000000600052601160045260246000fd5b60006110ac82610cda565b91507fffffffffffffffffffffffffffffffffffffffffffffffffffffffffffffffff82036110de576110dd611072565b5b600182019050919050565b60006110f482610cda565b91506110ff83610cda565b925082820190508082111561111757611116611072565b5b92915050565b7f45524332303a2064656372656173656420616c6c6f77616e63652062656c6f7760008201527f207a65726f000000000000000000000000000000000000000000000000000000602082015250565b6000611179602583610bcb565b91506111848261111d565b604082019050919050565b600060208201905081810360008301526111a88161116c565b9050919050565b7f45524332303a20617070726f76652066726f6d20746865207a65726f2061646460008201527f7265737300000000000000000000000000000000000000000000000000000000602082015250565b600061120b602483610bcb565b9150611216826111af565b604082019050919050565b6000602082019050818103600083015261123a816111fe565b9050919050565b7f45524332303a20617070726f766520746f20746865207a65726f20616464726560008201527f7373000000000000000000000000000000000000000000000000000000000000602082015250565b600061129d602283610bcb565b91506112a882611241565b604082019050919050565b600060208201905081810360008301526112cc81611290565b9050919050565b7f45524332303a20696e73756666696369656e7420616c6c6f77616e6365000000600082015250565b6000611309601d83610bcb565b9150611314826112d3565b602082019050919050565b60006020820190508181036000830152611338816112fc565b9050919050565b7f45524332303a207472616e736665722066726f6d20746865207a65726f20616460008201527f6472657373000000000000000000000000000000000000000000000000000000602082015250565b600061139b602583610bcb565b91506113a68261133f565b604082019050919050565b600060208201905081810360008301526113ca8161138e565b9050919050565b7f45524332303a207472616e7366657220746f20746865207a65726f206164647260008201527f6573730000000000000000000000000000000000000000000000000000000000602082015250565b600061142d602383610bcb565b9150611438826113d1565b604082019050919050565b6000602082019050818103600083015261145c81611420565b9050919050565b7f45524332303a207472616e7366657220616d6f756e742065786365656473206260008201527f616c616e63650000000000000000000000000000000000000000000000000000602082015250565b60006114bf602683610bcb565b91506114ca82611463565b604082019050919050565b600060208201905081810360008301526114ee816114b2565b905091905056fea2646970667358221220d3352bc2bda6b059f98c0a0dab6b1d1108a08342202045395c8f9d2f77d4a26664736f6c63430008110033",
  "immutableReferences": {},
  "source": "// SPDX-License-Identifier: GPL-3.0\n\npragma solidity ^0.8.0;\n\nimport \"@openzeppelin/contracts/token/ERC20/ERC20.sol\";\n\ncontract MyToken is ERC20{\n    constructor() ERC20(\"MyToken\", \"GIT\"){\n        _mint(msg.sender,1000000000*10**18);\n    }\n\nfunction multiTransfer(address[] calldata _addresses, uint[] calldata _amounts) payable public returns (bool success) {\n    for (uint i = 0; i < _addresses.length; i++) {\n    transfer(_addresses[i], _amounts[i]);\n    }\n    return true;\n}\n}",
  "sourcePath": "/Users/ameliawibi/Documents/Rocket/payroll/contracts/MyToken.sol",
  "compiler": {
    "name": "solc",
    "version": "0.8.17+commit.8df45f5f.Emscripten.clang"
  },
  "schemaVersion": "3.4.9",
  "updatedAt": "2022-10-20T01:55:15.589Z",
  "networkType": "ethereum",
  "devdoc": {
    "kind": "dev",
    "methods": {
      "allowance(address,address)": {
        "details": "See {IERC20-allowance}."
      },
      "approve(address,uint256)": {
        "details": "See {IERC20-approve}. NOTE: If `amount` is the maximum `uint256`, the allowance is not updated on `transferFrom`. This is semantically equivalent to an infinite approval. Requirements: - `spender` cannot be the zero address."
      },
      "balanceOf(address)": {
        "details": "See {IERC20-balanceOf}."
      },
      "decimals()": {
        "details": "Returns the number of decimals used to get its user representation. For example, if `decimals` equals `2`, a balance of `505` tokens should be displayed to a user as `5.05` (`505 / 10 ** 2`). Tokens usually opt for a value of 18, imitating the relationship between Ether and Wei. This is the value {ERC20} uses, unless this function is overridden; NOTE: This information is only used for _display_ purposes: it in no way affects any of the arithmetic of the contract, including {IERC20-balanceOf} and {IERC20-transfer}."
      },
      "decreaseAllowance(address,uint256)": {
        "details": "Atomically decreases the allowance granted to `spender` by the caller. This is an alternative to {approve} that can be used as a mitigation for problems described in {IERC20-approve}. Emits an {Approval} event indicating the updated allowance. Requirements: - `spender` cannot be the zero address. - `spender` must have allowance for the caller of at least `subtractedValue`."
      },
      "increaseAllowance(address,uint256)": {
        "details": "Atomically increases the allowance granted to `spender` by the caller. This is an alternative to {approve} that can be used as a mitigation for problems described in {IERC20-approve}. Emits an {Approval} event indicating the updated allowance. Requirements: - `spender` cannot be the zero address."
      },
      "name()": {
        "details": "Returns the name of the token."
      },
      "symbol()": {
        "details": "Returns the symbol of the token, usually a shorter version of the name."
      },
      "totalSupply()": {
        "details": "See {IERC20-totalSupply}."
      },
      "transfer(address,uint256)": {
        "details": "See {IERC20-transfer}. Requirements: - `to` cannot be the zero address. - the caller must have a balance of at least `amount`."
      },
      "transferFrom(address,address,uint256)": {
        "details": "See {IERC20-transferFrom}. Emits an {Approval} event indicating the updated allowance. This is not required by the EIP. See the note at the beginning of {ERC20}. NOTE: Does not update the allowance if the current allowance is the maximum `uint256`. Requirements: - `from` and `to` cannot be the zero address. - `from` must have a balance of at least `amount`. - the caller must have allowance for ``from``'s tokens of at least `amount`."
      }
    },
    "version": 1
  },
  "userdoc": {
    "kind": "user",
    "methods": {},
    "version": 1
  }
}